:020000040800F2
:10000000800700208901000805060008FD0500089A
:1000100001060008810200086710000800000000C7
:10002000000000000000000000000000D1060008F1
:10003000E5040008000000008D060008E507000840
:10004000A3010008A3010008A3010008A301000800
:10005000A3010008A3010008A3010008A3010008F0
:10006000A3010008A3010008A3010008A3010008E0
:10007000A3010008A3010008A3010008A3010008D0
:10008000A3010008A3010008A3010008A3010008C0
:10009000A3010008A3010008A3010008A3010008B0
:1000A000A3010008A3010008A3010008A3010008A0
:1000B000A3010008A3010008890A0008A3010008A1
:1000C000A3010008A3010008A3010008A301000880
:1000D000A3010008810F0008A3010008A301000884
:1000E000A3010008A3010008A301000800F002F822
:1000F00000F03AF80AA090E8000C82448344AAF188
:100100000107DA4501D100F02FF8AFF2090EBAE885
:100110000F0013F0010F18BFFB1A43F0010318473B
:10012000A0110000C0110000103A24BF78C878C1A7
:10013000FAD8520724BF30C830C144BF04680C60ED
:10014000704700000023002400250026103A28BF35
:1001500078C1FBD8520728BF30C148BF0B60704739
:100160001FB51FBD10B510BD00F05AF81146FFF7BE
:10017000F7FF00F09FFF00F078F803B4FFF7F2FFFD
:1001800003BC00F072FF000009488047094800479F
:10019000FEE7FEE7FEE7FEE7FEE7FEE7FEE7FEE737
:1001A000FEE7FEE704480549054A064B7047000094
:1001B000E9070008ED00000880010020800700200A
:1001C000800300208003002070474FF0000200B53C
:1001D000134694469646203922BFA0E80C50A0E86A
:1001E0000C50B1F12001BFF4F7AF090728BFA0E818
:1001F0000C5048BF0CC05DF804EB890028BF40F8E4
:10020000042B08BF704748BF20F8022B11F0804F25
:1002100018BF00F8012B7047704770477047704750
:10022000754600F029F8AE4605006946534620F0B1
:100230000700854618B020B5FFF7B4FFBDE82040A1
:100240004FF000064FF000074FF000084FF0000B92
:1002500021F00701AC46ACE8C009ACE8C009ACE845
:10026000C009ACE8C0098D4670470446AFF3008072
:100270002046FFF782FF0000004870472001002061
:1002800000BFFEE72DE9FF410446002600270025B8
:100290002069A0F57A6041F65831884201DC0126D8
:1002A00009E02069A0F57A6042F22831884201DA3B
:1002B000002600E00226A069A0F57A6041F6786188
:1002C000884208DDA069A0F57A6042F20801884200
:1002D00001DA022709E0A069A0F57A6041F67861A9
:1002E000884201DA002700E0012717B1012F4ED123
:1002F00026E00020ADF802006946484800F070FD95
:100300007020ADF800000120ADF802006168A1F591
:100310003850E038002801DB014600E04142C911B5
:1003200001EB81014FF6FF7202EA0111ADF80610F0
:100330000220ADF808006946384800F0F7FC35E0C7
:100340000020ADF802006946344800F0EFFC702050
:10035000ADF800000120ADF802006168A1F5385049
:10036000E038002801DB014600E04142C91101EB01
:1003700081014FF6FF7202EA0111ADF8061002206A
:10038000ADF808006946254800F02AFD0EE000207F
:10039000ADF802006946214800F0C8FC0020ADF825
:1003A000020069461D4800F01BFD00BF00BF26B1DA
:1003B000012E11D0022E2CD11DE0A068A0F53850DE
:1003C000E0384B2190FBF1F04B304500A9B24FF0E3
:1003D000804000F050FD1DE0A068A0F53850E038E6
:1003E0004B2190FBF1F04B304500A9B24FF080401B
:1003F00000F043FD0EE0A068A0F53850E038482139
:1004000001EB20204500A9B24FF0804000F037FDFD
:1004100000E000BF00BFBDE8FF8100000004004015
:1004200000B589B00121042000F032F90121092032
:1004300000F03EF98020ADF8200028208DF8230040
:1004400003208DF8220008A9244800F04CF8082069
:10045000ADF808000020ADF80A004FF4FA50ADF8EE
:100460000C000020ADF80E0002A91D4800F036FD7A
:100470000420ADF814000220ADF816000120ADF8FC
:1004800018000020ADF81A003020ADF81C0005A9B6
:10049000134800F08BFB4FF4A06000F0EDF81E2035
:1004A0008DF8040002208DF8050000208DF806006C
:1004B00001208DF8070001A800F0A6F80122042110
:1004C000074800F0C9FB01221146054800F0C4FBB3
:1004D0000121034800F049FB09B000BD000C0140B8
:1004E0000008004070472DE9F04102460025002633
:1004F000002000230024002791F803C00CF00F0512
:1005000091F803C00CF0100CBCF1000F03D091F86F
:1005100002C04CEA050591F800C0BCF1000F31D0D3
:10052000146800202BE04FF0010C0CFA00F3B1F836
:1005300000C00CEA03069E4220D183004FF00F0C4E
:100540000CFA03F7BC4305FA03FC4CEA040491F8E7
:1005500003C0BCF1280F06D14FF0010C0CFA00FCCF
:10056000C2F814C00AE091F803C0BCF1480F05D1ED
:100570004FF0010C0CFA00FCC2F810C0401C082817
:10058000D1D31460B1F800C0BCF1FF0F34DD546862
:1005900000202EE000F1080C4FF0010808FA0CF3DF
:1005A000B1F800C00CEA03069E4221D183004FF04F
:1005B0000F0C0CFA03F7BC4305FA03FC4CEA0404E5
:1005C00091F803C0BCF1280F05D100F1080C08FA1E
:1005D0000CF8C2F8148091F803C0BCF1480F07D1A1
:1005E00000F1080C4FF0010808FA0CF8C2F810806E
:1005F000401C0828CED35460BDE8F08100BFFEE760
:1006000000BFFEE77047000070B5002100230F22F5
:10061000C47804B3154C246804F4E064C4F5E064C1
:10062000210AC1F10403CA40447804FA03F1847832
:100630001440214309010E4C0678A155047804F0BA
:100640001F050124AC4005786D11AD0005F1E025D2
:10065000C5F8004109E0047804F01F050124AC400E
:10066000044D0678761145F8264070BD0CED00E08B
:1006700000E400E080E100E002490143024A116029
:10068000704700000000FA050CED00E07047000024
:1006900029B1064AD2690243044BDA6104E0034AF5
:1006A000D2698243014BDA617047000000100240BA
:1006B00029B1064A92690243044B9A6104E0034A55
:1006C00092698243014B9A6170470000001002401A
:1006D000704710B500F002F810BD00000CB5002006
:1006E000019000903348006840F480303149086040
:1006F00000BF3048006800F4003000900198401CB2
:100700000190009818B90198B0F5A06FF1D129486F
:10071000006800F4003010B10120009001E00020DA
:1007200000900098012843D12348006840F0100051
:10073000214908600846006820F003000860084668
:10074000006840F0020008601A4840681949486093
:100750000846406848600846406840F48060486049
:100760000846406820F47C1048600846406840F421
:10077000E81048600846006840F08070086000BFDC
:100780000C48006800F000700028F9D00948406863
:1007900020F00300074948600846406840F0020026
:1007A000486000BF0348406800F00C000828F9D1F9
:1007B0000CBD00000010024000200240042808D1B7
:1007C0004FF0E021096941F004014FF0E02211618E
:1007D00007E04FF0E021096921F004014FF0E02229
:1007E000116170477047000010B51348006840F071
:1007F00001001149086008464068104908400E4948
:100800004860084600680E4908400B4908600846E1
:10081000006820F4802008600846406820F4FE004C
:1008200048604FF41F008860FFF753FF4FF00060EF
:100830000449086010BD0000001002400000FFF8ED
:10084000FFFFF6FE08ED00E0F0B50C46154600226D
:100850000021068C4FF6FE773E400684028B018C09
:100860004FF60C7632407E1C06EA03162E433243C6
:10087000104EB0420ED0104EB0420BD0B0F1804FAF
:1008800008D00E4EB04205D00D4EB04202D00D4EF3
:10089000B04206D14FF6FD76314044F001063143B7
:1008A00005E04FF6F576314044F00106314302830E
:1008B0000184F0BD002C01400034014000040040E0
:1008C00000080040000C0040F0B50C461546002220
:1008D00000210026078C4FF6EF7C07EA0C070784FF
:1008E000028B018C4FF6FF7707EA041640F6FF47AC
:1008F0003A404FF6FF7707EA03373A434FF6FF7760
:1009000007EA05273A43114FB8420ED0104FB842BC
:100910000BD0B0F1804F08D00E4FB84205D00E4F2B
:10092000B84202D00D4FB84206D14FF6DF773940BA
:1009300046F01007394305E04FF65F77394044F041
:100940001007394302830184F0BD0000002C0140F0
:10095000003401400004004000080040000C00404A
:10096000F0B50C461546002200210026078C4FF6F4
:10097000FF6C07EA0C070784828B018C4FF6FF7728
:1009800007EA04264FF60C773A404FF6FF7707EA5E
:1009900003172F433A43114FB8420ED0104FB842BD
:1009A0000BD0B0F1804F08D00E4FB84205D00E4F9B
:1009B000B84202D00D4FB84206D14FF6FF5739402A
:1009C00046F48077394305E04FF2FF57394044F44D
:1009D0008077394382830184F0BD0000002C014000
:1009E000003401400004004000080040000C0040BA
:1009F000F0B50C461546002200210026078C4EF665
:100A0000FF7C07EA0C070784828B018C4FF6FF7787
:100A100007EA043640F6FF473A404FF6FF7707EA09
:100A200005273A434FF6FF7707EA03373A43114F5A
:100A3000B8420ED0104FB8420BD0B0F1804F08D062
:100A40000E4FB84205D00E4FB84202D00D4FB842FB
:100A500006D14DF6FF77394046F48057394305E01B
:100A600047F6FF57394044F4805739438283018465
:100A7000F0BD0000002C01400034014000040040A3
:100A800000080040000C004010B504212C4800F084
:100A90007BF801282CD12A4800F073F82949086016
:100AA00029480078012817D02848007800EB400139
:100AB000C1EBC0102349096801EB80102449096883
:100AC000401A2449244A127841F82200224800782A
:100AD000401C2149087004E000201F4908701A4991
:100AE0000870184800681A49086000201749087003
:100AF0000121134800F048F8012820D11748007858
:100B0000C0431649087011480078401C0F4908700E
:100B10000846007803280EDD0F4800780A2803D124
:100B200001200F49087003E028210A48FFF74DFB18
:100B30000120054908700121014800F013F810BD9B
:100B400000080040040000200A00002009000020E6
:100B50000000002030000020080000200C000020D1
:100B60000B000020CA430282704721B1028842F084
:100B70000102028004E002884FF6FE731A400280F0
:100B800070470146088F704730B5024600200023A9
:100B90000024158A05EA0103958905EA010413B1C9
:100BA0000CB1012000E0002030BD000070B505460A
:100BB0000C46244885420ED0234885420BD0B5F11F
:100BC000804F08D02148854205D02148854202D077
:100BD0002048854200D100E000BF208850B9238919
:100BE000A28861882846FFF72FFEE188284600F09A
:100BF00049F925E0208804280AD12389A288618840
:100C00002846FFF761FEE188284600F044F917E026
:100C1000208808280AD12389A28861882846FFF7FE
:100C20009FFEE188284600F043F909E02389A28865
:100C300061882846FFF7DCFEE188284600F041F98C
:100C400070BD0000002C0140003401400004004051
:100C500000080040000C00401AB183890B438381D7
:100C600002E083898B4383817047000070B50024C4
:100C700000220023058C4FF6EF7635400584028C68
:100C80008388048B48F6FF752C404FF6FF452C40B7
:100C90000D884FF6FF7606EA05252C434FF6DF75E3
:100CA0002A400D8906EA05152A434D8806EA0515EE
:100CB0002A43154DA84202D0144DA8421DD14FF62B
:100CC0007F752A404D894FF6FF7606EA05152A43BF
:100CD0004FF6BF752A408D8806EA05152A434FF660
:100CE000FF352B404FF2FF752B408D8906EA8505B5
:100CF0002B43CD8906EA85052B4383800483CD8869
:100D00000587028470BD0000002C014000340140C2
:100D10000A460021018B4FF2FF7319404FF6FF7313
:100D200003EA0223194301837047000070B50024D1
:100D300000220023058C4FF6FF6635400584028CA7
:100D40008388848B4FF68F752C404FF6FC752C40B2
:100D50000D882C434FF6FF552A400D894FF6FF763C
:100D600006EA05252A434D8806EA05252A43154D3E
:100D7000A84202D0144DA8421DD14FF2FF752A405F
:100D80004D894FF6FF7606EA05252A434FF6FF35D3
:100D90002A408D8806EA05252A434EF6FF752B402A
:100DA0004DF6FF752B408D8906EA05152B43CD893D
:100DB00006EA05152B4383808483CD8885870284CA
:100DC00070BD0000002C0140003401400A460021A3
:100DD000818B4FF6F77319401143818370470000F0
:100DE00070B5002200230024058C4EF6FF763540B6
:100DF0000584038C8488828B48F6FF752A404FF661
:100E0000FF452A400D884FF6FF7606EA05252A435E
:100E10004DF6FF752B400D8906EA05352B434D88AD
:100E200006EA05352B430B4DA84202D00A4DA842D5
:100E300008D14BF6FF752C408D894FF6FF7606EAF8
:100E400085152C4384808283CD88A0F8405003848C
:100E500070BD0000002C0140003401400A46002112
:100E6000818B4FF2FF7319404FF6FF7303EA0223A1
:100E70001943818370470187704781877047A0F8C5
:100E800040107047028B4FF6F3731A400283028BB7
:100E90000A4302837047028B4FF2FF331A400283EA
:100EA000028B4FF6FF7303EA01231A430283704754
:100EB000828B4FF6F3731A408283828B0A438283BC
:100EC0007047828B4FF2FF331A408283828B4FF63A
:100ED000FF7303EA01231A438283704700220288CA
:100EE0001D4B98420ED01D4B98420BD0B0F1804F55
:100EF00008D01B4B984205D01A4B984202D01A4B8F
:100F0000984204D14FF68F731A404B881A43174BFF
:100F1000984207D0164B984204D04FF6FF431A4030
:100F2000CB881A4302808B8883850B8803850A4B04
:100F300098420BD0094B984208D00E4B984205D0EE
:100F40000D4B984202D00D4B984201D10B7A03868B
:100F50000123838270470000002C014000340140CF
:100F60000004004000080040000C00400010004059
:100F7000001400400040014000440140004801408E
:100F800010B540F225511D4800F03EF810B31B4843
:100F900000F064F8C4B21A48008800F40040C8B9F0
:100FA0001748008800F4804060B10A2C03D000206C
:100FB0001349088020E01248008840F4004010499E
:100FC000088019E00D2C06D10D48008840F48040BF
:100FD0000B49088010E00A480088C0F30D00094959
:100FE0000C5407480088401C0549088008460088C2
:100FF000C72801DD0020088010BD00000038014036
:101000002C0000205800002070B502460024002368
:101010000025002040F66A16B14200D100BFC1F39E
:10102000421501F01F03012606FA03F3012D02D138
:101030009689334006E0022D02D1168A334001E042
:10104000968A33400C12012606FA04F416883440BE
:1010500013B10CB1012000E0002070BD014688886A
:10106000C0F30800704700BFFEE7014600BF7047AD
:1010700010B56FF00400FFF7A1FB0A4800680A49A9
:10108000B0FBF1F0094908700846007800EB400118
:10109000C1EBC0104FF6FF7101EAC000044908809F
:1010A00010BD00001000002000127A002400002073
:1010B00026000020FFF7DCFFFFF7B2F900F02EF862
:1010C00000BF124800780028FBD01148FFF7DAF87B
:1010D00000200E49087001218807FFF746FD012115
:1010E0000C48FFF742FD0FE00B48007860B9074855
:1010F0000078012805D10648FFF7C4F8002003490D
:101100000870FF2004490870EEE700000B00002083
:1011100030000020000400400C00002000B589B021
:1011200001210846FFF7B4FA01210220FFF7B0FAC7
:1011300001210420FFF7BCFA01210820FFF7B8FACB
:1011400001210846FFF7B4FA0120ADF8200018206D
:101150008DF8230003208DF8220008A95548FFF7D9
:10116000C2F90220ADF8200018208DF823000320DA
:101170008DF8220008A94F48FFF7B5F90121022098
:10118000FFF786FA40F2CF20ADF814000020ADF84A
:10119000160040F69700ADF818000020ADF81A00D0
:1011A00005A94548FFF79AFE40F2CF20ADF814009C
:1011B0000020ADF8160040F2CF70ADF81800002006
:1011C000ADF81A0005A94FF08040FFF787FE012116
:1011D0000420FFF76DFA0220ADF8200018208DF8EA
:1011E000230003208DF8220008A93448FFF77BF97B
:1011F0007020ADF804000120ADF806009620ADF88F
:101200000A000220ADF80C0001A94007FFF72EFDEF
:101210000420ADF8200018208DF8230003208DF85D
:10122000220008A92548FFF75EF901210846FFF7CB
:101230002FFA05A94FF08040FFF750FE7020ADF85F
:1012400004000120ADF806009620ADF80A00022047
:10125000ADF80C0001A94007FFF768FD0820ADF8C4
:10126000200018208DF8230003208DF8220008A903
:101270001248FFF738F97020ADF804000120ADF8EE
:1012800006009620ADF80A000220ADF80C0001A976
:101290004007FFF7A5FD0821C806FFF739FD082123
:1012A000C806FFF793FD0821C806FFF7D7FD09B070
:1012B00000BD0000000C0140000400400008014097
:1012C000E0120008000000203000000028010008A3
:1012D00010130008300000205007000044010008EF
:1012E00000000000000000000000010000000000FD
:1012F00000A24A04000000000000000001020304F4
:1013000006070809000000000000000000000000BF
:04000005080000ED02
:00000001FF
