:020000040800F2
:10000000A807002089010008090600080106000869
:100010000506000881020008F31000080000000037
:10002000000000000000000000000000D5060008ED
:10003000E50400080000000091060008E907000838
:10004000A3010008A3010008A3010008A301000800
:10005000A3010008A3010008A3010008A3010008F0
:10006000A3010008A3010008A3010008A3010008E0
:10007000A3010008A3010008A3010008A3010008D0
:10008000A3010008A3010008A3010008A3010008C0
:10009000A3010008A3010008A3010008A3010008B0
:1000A000A3010008A3010008A3010008A3010008A0
:1000B000A3010008A30100088D0A0008A30100089D
:1000C000A3010008A3010008A3010008A301000880
:1000D000A30100080D100008A3010008A3010008F7
:1000E000A3010008A3010008A301000800F002F822
:1000F00000F03AF80AA090E8000C82448344AAF188
:100100000107DA4501D100F02FF8AFF2090EBAE885
:100110000F0013F0010F18BFFB1A43F0010318473B
:100120001812000038120000103A24BF78C878C1B5
:10013000FAD8520724BF30C830C144BF04680C60ED
:10014000704700000023002400250026103A28BF35
:1001500078C1FBD8520728BF30C148BF0B60704739
:100160001FB51FBD10B510BD00F05AF81146FFF7BE
:10017000F7FF00F0E5FF00F078F803B4FFF7F2FFB7
:1001800003BC00F0B8FF0000094880470948004759
:10019000FEE7FEE7FEE7FEE7FEE7FEE7FEE7FEE737
:1001A000FEE7FEE704480549054A064B7047000094
:1001B000ED070008ED000008A8010020A8070020B6
:1001C000A8030020A803002070474FF0000200B5EC
:1001D000134694469646203922BFA0E80C50A0E86A
:1001E0000C50B1F12001BFF4F7AF090728BFA0E818
:1001F0000C5048BF0CC05DF804EB890028BF40F8E4
:10020000042B08BF704748BF20F8022B11F0804F25
:1002100018BF00F8012B7047704770477047704750
:10022000754600F029F8AE4605006946534620F0B1
:100230000700854618B020B5FFF7B4FFBDE82040A1
:100240004FF000064FF000074FF000084FF0000B92
:1002500021F00701AC46ACE8C009ACE8C009ACE845
:10026000C009ACE8C0098D4670470446AFF3008072
:100270002046FFF782FF0000004870474801002039
:1002800000BFFEE72DE9FF410446002600270025B8
:100290002069A0F57A6041F65831884201DC0126D8
:1002A00009E02069A0F57A6042F22831884201DA3B
:1002B000002600E00226A069A0F57A6041F6786188
:1002C000884208DDA069A0F57A6042F20801884200
:1002D00001DA022709E0A069A0F57A6041F67861A9
:1002E000884201DA002700E0012717B1012F4ED123
:1002F00026E00020ADF802006946484800F0FCFC0A
:100300007020ADF800000120ADF802006168A1F591
:100310003850E038002801DB014600E04142C911B5
:1003200001EB81014FF6FF7202EA0111ADF80610F0
:100330000220ADF808006946384800F091FC35E02D
:100340000020ADF802006946344800F089FC7020B6
:10035000ADF800000120ADF802006168A1F5385049
:10036000E038002801DB014600E04142C91101EB01
:1003700081014FF6FF7202EA0111ADF8061002206A
:10038000ADF808006946254800F0B6FC0EE00020F4
:10039000ADF802006946214800F062FC0020ADF88B
:1003A000020069461D4800F0A7FC00BF00BF26B14F
:1003B000012E11D0022E2CD11DE0A068A0F53850DE
:1003C000E0384B2190FBF1F04B304500A9B24FF0E3
:1003D000804000F096FD1DE0A068A0F53850E038A0
:1003E0004B2190FBF1F04B304500A9B24FF080401B
:1003F00000F089FD0EE0A068A0F53850E0384B21F0
:1004000001EB20204500A9B24FF0804000F07DFDB7
:1004100000E000BF00BFBDE8FF8100000004004015
:1004200000B589B00121042000F034F90121092030
:1004300000F040F94020ADF8200028208DF823007E
:1004400003208DF8220008A9244800F04CF8082069
:10045000ADF808000020ADF80A0047F23050ADF8C2
:100460000C000020ADF80E0002A91D4800F07CFD34
:100470000020ADF814000220ADF816000120ADF800
:1004800018000020ADF81A003020ADF81C0005A9B6
:10049000134800F085FB4FF4A06000F0EFF81E2039
:1004A0008DF8040002208DF8050000208DF806006C
:1004B00001208DF8070001A800F0A8F80122022110
:1004C000074800F0C3FB01221146054800F0BEFBBF
:1004D0000121034800F043FB09B000BD000C0140BE
:1004E0000008004070472DE9F04102460025002633
:1004F000002000230024002791F803C00CF00F0512
:1005000091F803C00CF0100CBCF1000F03D091F86F
:1005100002C04CEA050591F800C0BCF1000F31D0D3
:10052000146800202BE04FF0010C0CFA00F3B1F836
:1005300000C00CEA03069E4220D183004FF00F0C4E
:100540000CFA03F7BC4305FA03FC4CEA040491F8E7
:1005500003C0BCF1280F06D14FF0010C0CFA00FCCF
:10056000C2F814C00AE091F803C0BCF1480F05D1ED
:100570004FF0010C0CFA00FCC2F810C0401C082817
:10058000D1D31460B1F800C0BCF1FF0F34DD546862
:1005900000202EE000F1080C4FF0010808FA0CF3DF
:1005A000B1F800C00CEA03069E4221D183004FF04F
:1005B0000F0C0CFA03F7BC4305FA03FC4CEA0404E5
:1005C00091F803C0BCF1280F05D100F1080C08FA1E
:1005D0000CF8C2F8148091F803C0BCF1480F07D1A1
:1005E00000F1080C4FF0010808FA0CF8C2F810806E
:1005F000401C0828CED35460BDE8F08141617047AB
:1006000000BFFEE700BFFEE77047000070B50021A5
:1006100000230F22C47804B3154C246804F4E0646A
:10062000C4F5E064210AC1F10403CA40447804FA25
:1006300003F184781440214309010E4C0678A1553A
:10064000047804F01F050124AC4005786D11AD005D
:1006500005F1E025C5F8004109E0047804F01F0524
:100660000124AC40044D0678761145F8264070BD53
:100670000CED00E000E400E080E100E0024901430D
:10068000024A1160704700000000FA050CED00E01E
:100690007047000029B1064AD2690243044BDA616F
:1006A00004E0034AD2698243014BDA6170470000DB
:1006B0000010024029B1064A92690243044B9A6134
:1006C00004E0034A92698243014B9A61704700003B
:1006D00000100240704710B500F002F810BD000095
:1006E0000CB50020019000903348006840F4803041
:1006F0003149086000BF3048006800F400300090C5
:100700000198401C0190009818B90198B0F5A06FAD
:10071000F1D12948006800F4003010B101200090A8
:1007200001E0002000900098012843D12348006890
:1007300040F01000214908600846006820F00300DE
:1007400008600846006840F0020008601A484068E7
:10075000194948600846406848600846406840F4C7
:10076000806048600846406820F47C104860084675
:10077000406840F4E81048600846006840F0807027
:10078000086000BF0C48006800F000700028F9D035
:100790000948406820F0030007494860084640685F
:1007A00040F00200486000BF0348406800F00C00C1
:1007B0000828F9D10CBD00000010024000200240C2
:1007C000042808D14FF0E021096941F004014FF0FD
:1007D000E022116107E04FF0E021096921F00401F6
:1007E0004FF0E022116170477047000010B51348C8
:1007F000006840F00100114908600846406810494F
:1008000008400E494860084600680E4908400B49F8
:1008100008600846006820F48020086008464068A8
:1008200020F4FE0048604FF41F008860FFF753FF7C
:100830004FF000600449086010BD00000010024045
:100840000000FFF8FFFFF6FE08ED00E0F0B50C46F3
:10085000154600220021068C4FF6FE773E400684A6
:10086000028B018C4FF60C7632407E1C06EA031692
:100870002E433243104EB0420ED0104EB0420BD039
:10088000B0F1804F08D00E4EB04205D00D4EB042B0
:1008900002D00D4EB04206D14FF6FD76314044F005
:1008A0000106314305E04FF6F576314044F001068C
:1008B000314302830184F0BD002C0140003401402B
:1008C0000004004000080040000C0040F0B50C4659
:1008D0001546002200210026078C4FF6EF7C07EA20
:1008E0000C070784028B018C4FF6FF7707EA04168A
:1008F00040F6FF473A404FF6FF7707EA03373A439F
:100900004FF6FF7707EA05273A43114FB8420ED05A
:10091000104FB8420BD0B0F1804F08D00E4FB84204
:1009200005D00E4FB84202D00D4FB84206D14FF657
:10093000DF77394046F01007394305E04FF65F771F
:10094000394044F01007394302830184F0BD0000B0
:10095000002C014000340140000400400008004029
:10096000000C0040F0B50C46154600220021002680
:10097000078C4FF6FF6C07EA0C070784828B018C0B
:100980004FF6FF7707EA04264FF60C773A404FF60A
:10099000FF7707EA03172F433A43114FB8420ED0AF
:1009A000104FB8420BD0B0F1804F08D00E4FB84274
:1009B00005D00E4FB84202D00D4FB84206D14FF6C7
:1009C000FF57394046F48077394305E04FF2FF572F
:1009D000394044F48077394382830184F0BD0000BC
:1009E000002C014000340140000400400008004099
:1009F000000C0040F0B50C461546002200210026F0
:100A0000078C4EF6FF7C07EA0C070784828B018C6B
:100A10004FF6FF7707EA043640F6FF473A404FF6B5
:100A2000FF7707EA05273A434FF6FF7707EA0337D0
:100A30003A43114FB8420ED0104FB8420BD0B0F12C
:100A4000804F08D00E4FB84205D00E4FB84202D0AA
:100A50000D4FB84206D14DF6FF77394046F4805726
:100A6000394305E047F6FF57394044F4805739438E
:100A700082830184F0BD0000002C0140003401405D
:100A80000004004000080040000C004010B50221A6
:100A9000294800F073F801282BD1274800F06BF8A3
:100AA0002649086026480078012816D02548007895
:100AB00040F2537148432149096801EB0010224973
:100AC0000968401A2149224A127841F82200204838
:100AD0000078401C1E49087004E000201C49087082
:100AE0001749087015480068174908600020154923
:100AF00008700121104800F041F801281BD111486D
:100B00000078401C0F4908700846007801280EDD67
:100B10000F4800780A2803D101200E49087003E02D
:100B200028210A48FFF751FB0120054908700121DF
:100B3000014800F011F810BD00080040040000203A
:100B40000A000020090000200000002058000020BA
:100B5000080000200B000020CA430282704721B128
:100B6000028842F00102028004E002884FF6FE7320
:100B70001A40028070470146888E704730B50246A1
:100B8000002000230024158A05EA0103958905EA5F
:100B9000010413B10CB1012000E0002030BD0000C1
:100BA00070B505460C46244885420ED02348854240
:100BB0000BD0B5F1804F08D02148854205D021489F
:100BC000854202D02048854200D100E000BF208845
:100BD00050B92389A28861882846FFF737FEE1884B
:100BE000284600F095F925E0208804280AD12389B9
:100BF000A28861882846FFF769FEE188284600F050
:100C000090F917E0208808280AD12389A2886188F2
:100C10002846FFF7A7FEE188284600F08FF909E093
:100C20002389A28861882846FFF7E4FEE1882846E8
:100C300000F08DF970BD0000002C0140003401402F
:100C40000004004000080040000C00401AB18389F5
:100C50000B43838102E083898B43838170470000CB
:100C600070B5002400220023058C4FF6FE76354037
:100C70000584028C8388048B4FF68F752C40B51E3B
:100C80002C400D882C43751E2A400D892A434D881F
:100C90002A43144DA8420BD0134DA84208D0134D3F
:100CA000A84205D0124DA84202D0124DA84213D13D
:100CB0004FF6F7752A404D892A434FF6FB752A40B7
:100CC0008D882A434FF6FF652B404FF6FF552B408A
:100CD0008D892B43CD892B4383800483CD888586E2
:100CE000028470BD002C01400034014000400140EE
:100CF000004401400048014070B500240022002358
:100D0000058C4FF6EF7635400584028C8388048B82
:100D100048F6FF752C404FF6FF452C400D884FF6E6
:100D2000FF7606EA05252C434FF6DF752A400D892C
:100D300006EA05152A434D8806EA05152A43154D8E
:100D4000A84202D0144DA8421DD14FF67F752A400B
:100D50004D894FF6FF7606EA05152A434FF6BF7513
:100D60002A408D8806EA05152A434FF6FF352B40A9
:100D70004FF2FF752B408D8906EA85052B43CD89FF
:100D800006EA85052B4383800483CD88058702848A
:100D900070BD0000002C0140003401400A460021D3
:100DA000018B4FF2FF7319404FF6FF7303EA0223E2
:100DB000194301837047000070B50024002200230E
:100DC000058C4FF6FF6635400584028C8388848B42
:100DD0004FF68F752C404FF6FC752C400D882C4338
:100DE0004FF6FF552A400D894FF6FF7606EA052596
:100DF0002A434D8806EA05252A43154DA84202D00C
:100E0000144DA8421DD14FF2FF752A404D894FF66F
:100E1000FF7606EA05252A434FF6FF352A408D88DE
:100E200006EA05252A434EF6FF752B404DF6FF7561
:100E30002B408D8906EA05152B43CD8906EA051559
:100E40002B4383808483CD888587028470BD000016
:100E5000002C0140003401400A460021818B4FF6EE
:100E6000F7731940114381837047000070B5002269
:100E700000230024058C4EF6FF7635400584038C54
:100E80008488828B48F6FF752A404FF6FF452A403A
:100E90000D884FF6FF7606EA05252A434DF6FF75C5
:100EA0002B400D8906EA05352B434D8806EA0535AA
:100EB0002B430B4DA84202D00A4DA84208D14BF655
:100EC000FF752C408D894FF6FF7606EA85152C4379
:100ED00084808283CD88A0F84050038470BD0000D8
:100EE000002C0140003401400A460021818B4FF262
:100EF000FF7319404FF6FF7303EA022319438183FE
:100F000070470187704781877047A0F8401070478D
:100F1000028B4FF6F3731A400283028B0A4302835B
:100F20007047028B4FF2FF331A400283028B4FF659
:100F3000FF7303EA01231A4302837047828B4FF643
:100F4000F3731A408283828B0A4382837047828BB9
:100F50004FF2FF331A408283828B4FF6FF7303EA0E
:100F600001231A4382837047002202881D4B984256
:100F70000ED01D4B98420BD0B0F1804F08D01B4BC8
:100F8000984205D01A4B984202D01A4B984204D18D
:100F90004FF68F731A404B881A43174B984207D06D
:100FA000164B984204D04FF6FF431A40CB881A43A1
:100FB00002808B8883850B8803850A4B98420BD06F
:100FC000094B984208D00E4B984205D00D4B9842E1
:100FD00002D00D4B984201D10B7A03860123838204
:100FE00070470000002C0140003401400004004024
:100FF00000080040000C00400010004000140040B9
:1010000000400140004401400048014010B540F25A
:1010100025511D4800F03EF810B31B4800F064F85D
:10102000C4B21A48008800F40040C8B917480088C4
:1010300000F4804060B10A2C03D0002013490880DE
:1010400020E01248008840F400401049088019E070
:101050000D2C06D10D48008840F480400B490880D3
:1010600010E00A480088C0F30D0009490C540748F5
:101070000088401C0549088008460088C72801DD13
:101080000020088010BD0000003801402C00002026
:101090008000002070B502460024002300250020B7
:1010A00040F66A16B14200D100BFC1F3421501F00B
:1010B0001F03012606FA03F3012D02D1968933405E
:1010C00006E0022D02D1168A334001E0968A3340B1
:1010D0000C12012606FA04F41688344013B10CB140
:1010E000012000E0002070BD01468888C0F30800A0
:1010F000704700BFFEE7014600BF704710B56FF0B4
:101100000400FFF75DFB0A4800680A49B0FBF1F0F4
:10111000094908700846007800EB4001C1EBC01097
:101120004FF6FF7101EAC0000449088010BD0000BD
:101130001000002000127A00240000202600002069
:10114000FFF7DCFFFFF76CF900F026F800BF0F484F
:1011500000780028FBD00E48FFF794F800200B49D8
:10116000087001218807FFF7FAFC01210948FFF701
:10117000F6FC09E005480078012805D10448FFF78E
:1011800081F8002001490870F4E700000B000020FE
:10119000580000200004004000B589B00121084635
:1011A000FFF778FA01210220FFF774FA01210420E9
:1011B000FFF780FA01210846FFF77CFA8020ADF89E
:1011C000200018208DF8230003208DF8220008A9A4
:1011D0005748FFF788F94020ADF8200018208DF817
:1011E000230003208DF8220008A95148FFF77BF95E
:1011F00040214F48FFF702FA01210220FFF74AFA87
:1012000040F2CF20ADF814000020ADF8160040F6F3
:101210009700ADF818000020ADF81A0005A9454860
:10122000FFF7A2FE40F2CF20ADF814000020ADF889
:10123000160040F2CF70ADF818000020ADF81A008B
:1012400005A94FF08040FFF78FFE01210420FFF732
:1012500031FA0220ADF8200018208DF82300032079
:101260008DF8220008A93248FFF73DF97020ADF84B
:1012700004000120ADF806009620ADF80A00022017
:10128000ADF80C0001A94007FFF736FD0420ADF8CA
:10129000200018208DF8230003208DF8220008A9D3
:1012A0002348FFF720F901210846FFF7F3F905A9C4
:1012B0004FF08040FFF758FE7020ADF80400012089
:1012C000ADF806009620ADF80A000220ADF80C003B
:1012D00001A94007FFF770FD0820ADF82000182095
:1012E0008DF8230003208DF8220008A91048FFF78D
:1012F000FAF87020ADF804000120ADF80600962041
:10130000ADF80A000220ADF80C0001A94007FFF774
:10131000ADFD0821C806FFF741FD0821C806FFF70B
:101320009BFD0821C806FFF7DFFD09B000BD0000E6
:10133000000801400004004058130008000000208D
:101340003000000028010008881300083000002049
:1013500078070000440100080000000000000000C1
:10136000000001000000000000A24A04000000008C
:101370000000000001020304060708090000000045
:08138000000000000000000065
:04000005080000ED02
:00000001FF
